{
  "transactions": [
    {
      "hash": "0x1f6dc17278e65feb9e0f1f9e9c9e0345b488dc588bdd1143dc12c8d5902f3f8f",
      "transactionType": "CALL",
      "contractName": null,
      "contractAddress": "0xa374f4eec3eeb3c9c8e4078daa88d52ec8f76114",
      "function": "mintNft(string)",
      "arguments": [
        "ipfs://QmRyDzTnZdZzEcuruayRUs1Ap35crYhpj6kAnhKDVgYQeA"
      ],
      "transaction": {
        "from": "0xdb2869b1e6c8f795aae6fb040eaac49016dd52a9",
        "to": "0xa374f4eec3eeb3c9c8e4078daa88d52ec8f76114",
        "gas": "0x35fd3",
        "value": "0x0",
        "input": "0xda86f4a900000000000000000000000000000000000000000000000000000000000000200000000000000000000000000000000000000000000000000000000000000035697066733a2f2f516d5279447a546e5a645a7a45637572756179525573314170333563725968706a366b416e684b445667595165410000000000000000000000",
        "nonce": "0x9",
        "chainId": "0xaa36a7"
      },
      "additionalContracts": [],
      "isFixedGasLimit": false
    }
  ],
  "receipts": [
    {
      "status": "0x1",
      "cumulativeGasUsed": "0xb3d1c5",
      "logs": [
        {
          "address": "0xa374f4eec3eeb3c9c8e4078daa88d52ec8f76114",
          "topics": [
            "0xddf252ad1be2c89b69c2b068fc378daa952ba7f163c4a11628f55a4df523b3ef",
            "0x0000000000000000000000000000000000000000000000000000000000000000",
            "0x000000000000000000000000db2869b1e6c8f795aae6fb040eaac49016dd52a9",
            "0x0000000000000000000000000000000000000000000000000000000000000000"
          ],
          "data": "0x",
          "blockHash": "0x6628febee21131f5725cd49dbd9c5e0af1f4ecd1382d1083bc82b6ea523b4ca7",
          "blockNumber": "0x97bcc5",
          "blockTimestamp": "0x695396c4",
          "transactionHash": "0x1f6dc17278e65feb9e0f1f9e9c9e0345b488dc588bdd1143dc12c8d5902f3f8f",
          "transactionIndex": "0x40",
          "logIndex": "0x92",
          "removed": false
        }
      ],
      "logsBloom": "0x00000000000000000000000000000000000000000000000000000000000000000000000000000000000000000000000000000000000000000000000000000000000000000000000000000008000000000000000000000000000000000000000000000000020800000000000000000800000000000000000000000010000000000000000080000000000000000000000000000000000000000000000000000000000000008000000000000000000000000000000000000000200000080000000000000002000000000000000000000000000000000000000000000000000420000000000000000000000000000000000000000000000000000000000000000000",
      "type": "0x2",
      "transactionHash": "0x1f6dc17278e65feb9e0f1f9e9c9e0345b488dc588bdd1143dc12c8d5902f3f8f",
      "transactionIndex": "0x40",
      "blockHash": "0x6628febee21131f5725cd49dbd9c5e0af1f4ecd1382d1083bc82b6ea523b4ca7",
      "blockNumber": "0x97bcc5",
      "gasUsed": "0x27165",
      "effectiveGasPrice": "0x10ff99",
      "from": "0xdb2869b1e6c8f795aae6fb040eaac49016dd52a9",
      "to": "0xa374f4eec3eeb3c9c8e4078daa88d52ec8f76114",
      "contractAddress": null
    }
  ],
  "libraries": [],
  "pending": [],
  "returns": {},
  "timestamp": 1767085766275,
  "chain": 11155111,
  "commit": "4bf510c"
}