{
  "transactions": [
    {
      "hash": "0x140d48cc2368bdb477f4734dd29c35a21c2b025c8f29718f9f421c1aa736aaa1",
      "transactionType": "CALL",
      "contractName": null,
      "contractAddress": "0xa374f4eec3eeb3c9c8e4078daa88d52ec8f76114",
      "function": "mintNft(string)",
      "arguments": [
        "ipfs://bafkreierwfuf5e5a6hn3as6zmokfbyxeqkny43rqftvwvg7u72noiakcoy"
      ],
      "transaction": {
        "from": "0xdb2869b1e6c8f795aae6fb040eaac49016dd52a9",
        "to": "0xa374f4eec3eeb3c9c8e4078daa88d52ec8f76114",
        "gas": "0x34fb4",
        "value": "0x0",
        "input": "0xda86f4a900000000000000000000000000000000000000000000000000000000000000200000000000000000000000000000000000000000000000000000000000000042697066733a2f2f6261666b7265696572776675663565356136686e336173367a6d6f6b6662797865716b6e7934337271667476777667377537326e6f69616b636f79000000000000000000000000000000000000000000000000000000000000",
        "nonce": "0xa",
        "chainId": "0xaa36a7"
      },
      "additionalContracts": [],
      "isFixedGasLimit": false
    }
  ],
  "receipts": [
    {
      "status": "0x1",
      "cumulativeGasUsed": "0xf88817",
      "logs": [
        {
          "address": "0xa374f4eec3eeb3c9c8e4078daa88d52ec8f76114",
          "topics": [
            "0xddf252ad1be2c89b69c2b068fc378daa952ba7f163c4a11628f55a4df523b3ef",
            "0x0000000000000000000000000000000000000000000000000000000000000000",
            "0x000000000000000000000000db2869b1e6c8f795aae6fb040eaac49016dd52a9",
            "0x0000000000000000000000000000000000000000000000000000000000000001"
          ],
          "data": "0x",
          "blockHash": "0x4aba3d5215095084f7a9c936ce87d7ac57161646daf8a9d4780268c17d90d344",
          "blockNumber": "0x97be4f",
          "blockTimestamp": "0x6953aa44",
          "transactionHash": "0x140d48cc2368bdb477f4734dd29c35a21c2b025c8f29718f9f421c1aa736aaa1",
          "transactionIndex": "0x57",
          "logIndex": "0xdb",
          "removed": false
        }
      ],
      "logsBloom": "0x00000000000000000000000000000000000000000000000000000000000000000000000000000000000000000000000000000000000000000000000000040000000000000000000000000008000000000000000000040000000000000000000000000000020800000000000000000800000000000000000000000010000000000000000080000000000000000000000000000000000000000000000000000000000000008000000000000000000000000000000000000000200000080000000000000002000000000000000000000000000000000000000000000000000460000000000000000000000000000000000000000000000000000000000000000000",
      "type": "0x2",
      "transactionHash": "0x140d48cc2368bdb477f4734dd29c35a21c2b025c8f29718f9f421c1aa736aaa1",
      "transactionIndex": "0x57",
      "blockHash": "0x4aba3d5215095084f7a9c936ce87d7ac57161646daf8a9d4780268c17d90d344",
      "blockNumber": "0x97be4f",
      "gasUsed": "0x243a1",
      "effectiveGasPrice": "0x113707",
      "from": "0xdb2869b1e6c8f795aae6fb040eaac49016dd52a9",
      "to": "0xa374f4eec3eeb3c9c8e4078daa88d52ec8f76114",
      "contractAddress": null
    }
  ],
  "libraries": [],
  "pending": [],
  "returns": {},
  "timestamp": 1767090757746,
  "chain": 11155111,
  "commit": "4bf510c"
}